:0400000080313128F2
:100008007E1480310B1F09280A282F284101961ECB
:100018000E280F2817288C1E12281328172882311B
:10002800042280312F281C1C1A281B282328121C64
:100038001E281F28232882316B2280312F289C1CE0
:10004800262827282F28921C2A282B282F28823157
:10005800132280312F287E10090080313328F801BF
:10006800F901FA01FB01FC01FD014001A001A10118
:10007800A201A301A401A501A601A701A801A90144
:100088007E104001813144291E001400001E00002A
:100098000000460114284001000000000A00401139
:1000A8000A2800001E00E6018016B50000000000C6
:1000B8000000000000000000000000000000000038
:1000C8000000000000000000000000000000000028
:1000D8000000000000000000000000000000000018
:1000E8000000000000000000000000000000000008
:1000F80000000000000000000000000000000000F8
:1001080000000000000000000000000000000000E7
:1001180000000000000000000000000000000000D7
:100128000000000000000000AA16000050010000B6
:1001380000001F01E1031F3CE1031F3CF0011F3ECB
:10014800E0031F3EE1031F3CC00000000100B8208F
:10015800000402087A01A6138430A600A7013A30E9
:10016800A8005130A9000330AD00AE01AF01B001C5
:100178008C018D01FF308E0003308F006C309200AF
:10018800023093009801970196019E019D01990103
:1001980008309A00A30102309F00A101A201A40126
:1001A800A501AB01AC01AA014001A801A901A60162
:1001B800A701410112101C1092109C1484307A017E
:1001C800A600080040019801990101309A003430D6
:1001D8009200F0309300FE30940034307D018C00A2
:1001E800F0309600FE30A0008D019701A1018E012C
:1001F8009801A20137308F00F0309900FF30A3003A
:1002080038309000F0309A00FE30A40024307B0192
:100218008D0025308C007D019101920193019B0195
:100228009C019D01A501A601A70108007901A5016E
:100238000730A6000730A7002508F3390838A500BD
:10024800A401A301A201D530A100F330A505A401A2
:10025800A301A201A101A0019F019E019D01FF3000
:100268009700FF309600940193019A0141018D1087
:1002780097100D1117117901A5011030920008008F
:100288008131A72181318B170B178830F00001309D
:10029800F1008231402281316E30F0000230F100ED
:1002A80082314C2281317D185A295B295E2940010F
:1002B8001A10602940011A14FD1C63296429572962
:1002C8001A105729803131287408663EF60000302C
:1002D800753DF7007508F1007408F0007708F30021
:1002E8007608F20082312D22813182315722813104
:1002F80082315C228131003A031D832984297C29BB
:1003080082315222813108000130FC073C307C02E6
:10031800031C8F2990299429FC018231682281319C
:100328000130F8070030F93D03307902E83003194D
:100338007802031CA029A129A629E830F800033077
:10034800F9007D1408008231372281318131C321BF
:1003580081318031E62081318031AE208131813197
:10036800F22181318131DF21813181311A218131BD
:1003780082316122813182312222813108004A0191
:100388008C134830F4000030F50081316821813148
:100398000E304A0195009901980197019601410193
:1003A80013101D1093109D1013111D1193119D1101
:1003B8004A018C1708000130470190008F01910114
:1003C800EA308D008C0100304001A0000030A1000F
:1003D80041010E11CF3047018E000800FF30430164
:1003E8009D009C0153309F0070304001A2000230F4
:1003F800A30041018C129616803043019E0008002C
:1004080040012208230403190A2A0B2A102A230868
:100418008A0022080A00823141018C120800410139
:10042800921040012608270403191B2A1C2A212A96
:1004380027088A0026080A008231080041010C10AA
:100448000B140030F0000030F10082314622823176
:1004580008007308790197007208960071089400E3
:10046800700893000800603045018D008F019101EC
:10047800033093009201080071084001A30070083E
:10048800A200080071084001A5007008A400080037
:1004980071084001A7007008A6000800790119102A
:1004A80012139213080079019217191412170800F1
:1004B8007901120E890C01390800823165228231D6
:1004C80008007901901108007A01261408004101FA
:0A04D80012100800FD1408000800CF
:020000040001F9
:0A000E008C3FFF3F9F3FFF3FFF3F85
:00000001FF
