:08000000803102288731F72F3F
:100DEE007901901108008631F726863108007901C5
:100DFE00120E890C01390800790192171914121775
:100E0E000800790119101213921308007108FB00E3
:100E1E007008FA000800873148278731152F803176
:100E2E000228603045018D008F019101033093003F
:100E3E0092010800730879019700720896007108F4
:100E4E00940070089300080041010C100B14003040
:100E5E00F0000030F10087310D2787310800013096
:100E6E00470190008F019101EA308D008C01003016
:100E7E00F8000030F90041010E11CF3047018E000D
:100E8E00080087311827873187315E2787318731F0
:100E9E00C427873187313627873187319A278731A3
:100EAE008631FA26873187312B27873108004A0190
:100EBE008C130030F4000830F50087317A27873123
:100ECE000E304A0195009901980197019601410152
:100EDE0013101D1093109D1013111D1193119D11C0
:100EEE004A018C1708007408663EF6000030753D06
:100EFE00F7007508F1007408F0007708F300760823
:100F0E00F2008731212787318731032787318631D8
:100F1E00FE268731003A031D952F962F8E2F87318F
:100F2E000827873108007901A5010730A600073090
:100F3E00A7002508F3390838A500A401A301A201D2
:100F4E00D530A100F330A505A401A301A201A10192
:100F5E00A0019F019E019D01FF309700FF3096007A
:100F6E00940193019A0141018D1097100D111711E3
:100F7E007901A501103092000800400198019901F5
:100F8E009A0134309200F0309300FF3094003430E8
:100F9E007D018C00F0309600FF30A0008D0197018E
:100FAE00A1018E019801A20137308F00F030990017
:100FBE00FF30A3003C309000F0309A00FF30A400C8
:100FCE0024307B018D0025308C007D019101920132
:100FDE0093019B019C019D01A501A601A70108009B
:100FEE00F801F901FA01FB01FC01FD014001873115
:100FFE00122FA106351000000000000000001E0098
:10100E00E601000000000A0040110A2800001E0040
:10101E00F4019E2EF501401F000000003500A006D1
:10102E00150000000000000000000000000000009D
:10103E000000000000000A0040290A2800000000FD
:10104E000000000000000000000000000000000092
:10105E000000000000000000000000000000000082
:10106E000000000000000000000000000000000072
:10107E000000000000000000000000000000000062
:10108E000000000000000000000000000000000052
:10109E0000001E34F415401F000000001F01E10384
:1010AE001F3CE1031F3CF0011F3EE0031F3EE10326
:0E10BE001F3C400100000800F01AE502020885
:020000040001F9
:0A000E008C3FFF3F9F3FFF3FFF3F85
:00000001FF
